:020000040800F2
:1000000000500020711800080115000807150008AD
:100010000D15000813150008191500080000000050
:100020000000000000000000000000001F15000894
:100030002B150008000000003715000843150008C4
:10004000B9180008B9180008B9180008B91800084C
:10005000B9180008B9180008B9180008B91800083C
:10006000B9180008B9180008B9180008B91800082C
:10007000B9180008B9180008B9180008B91800081C
:10008000B9180008B9180008B9180008B91800080C
:10009000B9180008B9180008B9180008B9180008FC
:1000A000B9180008B9180008B9180008B9180008EC
:1000B00051150008B9180008B9180008B918000847
:1000C000B9180008B9180008B9180008B9180008CC
:1000D000B9180008B9180008B9180008B9180008BC
:1000E00065150008B9180008B918000800000000DC
:1000F0000000000000000000000000000000000000
:0C01000000000000000000005FF808F1A3
:10010C0010B5054C237833B9044B13B10448AFF345
:10011C0000800123237010BDBC00002000000000F3
:10012C008C43000808B5034B1BB103490348AFF3DC
:10013C00008008BD00000000C00000208C430008B7
:10014C0080B483B000AF7860094A7B6852F82330E2
:10015C00012B06D1064A7B68002142F823100123AB
:10016C0000E0002318460C37BD4680BC704700BF2A
:10017C00D800002080B483B000AF7860094A7B6857
:10018C0052F82330012B06D1064A7B68002142F835
:10019C002310012300E0002318460C37BD4680BC19
:1001AC00704700BFE000002080B582B000AF002394
:1001BC007B6087E0484A7B6852F8232047497B687C
:1001CC0041F82320464A7B6852F8232042497B6839
:1001DC0041F82320434A7B6852F8232042497B682C
:1001EC0031F813301946104601F07AFE03461946D1
:1001FC003B4A7B6842F82310374A7B6852F823202D
:10020C0037497B6851F823309A4258D1324A7B687F
:10021C0052F8232031497B6851F823309A424ED151
:10022C002E4A7B6852F8232030497B6851F82330E2
:10023C009A4224D0294A7B6852F823202B497B68A8
:10024C0041F82320254A7B6852F82330002B05D136
:10025C00274A7B68642142F8231030E0244A7B68EB
:10026C0052F82330002B04DD224A7B68012142F82E
:10027C0023101F4A7B68642142F823101FE01C4A9C
:10028C007B6852F823305A1E19497B6841F82320A9
:10029C00174A7B6852F82330002B10D10F4A7B6829
:1002AC0052F82330002B05D1134A7B68012142F808
:1002BC00231004E00E4A7B68642142F823107B680B
:1002CC0001337B607B68012B7FF774AF00BF00BFED
:1002DC000837BD4680BD00BF08000020100000207C
:1002EC000000002028000020300000201800002012
:1002FC0020000020D8000020E000002080B500AFD6
:10030C00874B1B68053B052B00F2668101A252F856
:10031C0023F000BF39030008750300080704000828
:10032C009904000851050008E30500087D4B0022E4
:10033C001A607B4B06221A607B4B1B687B4A13604E
:10034C007B4B1B687B4A1360794B1B687A4A1360A2
:10035C0000F015FC0020FFF7F3FE0020FFF70AFF6A
:10036C000120FFF7EDFE37E16E4B00221A6001F021
:10037C0017FA01F055F96D4B1B68002B0AD16F4B26
:10038C001B686A4A13606D4B1B686A4A1360644BA6
:10039C0007221A600020FFF7D3FE0346002B11D072
:1003AC00604B04221A605E4B1B68654A13605C4B01
:1003BC000A221A605D4B00221A605E4B00221A6002
:1003CC0000F0DDFB0020FFF7D5FE0346002B10D01C
:1003DC00544B01221A60524B0A221A60544B1B6870
:1003EC00554A1360514B01221A6001F0F9F800F0E4
:1003FC00C6FB0120FFF7A4FEEEE04A4B00221A6078
:10040C0001F0CEF901F02CF9484B1B68002B0AD1F6
:10041C00474B1B68454A1360434B1B68454A1360A6
:10042C003F4B08221A600020FFF78AFE0346002B80
:10043C0011D03C4B04221A60394B1B68404A1360A4
:10044C00374B0A221A60394B02221A60394B0022B0
:10045C001A6000F094FB0020FFF78CFE0346002B83
:10046C0010D0304B01221A602D4B0A221A60304BEF
:10047C001B68314A13602D4B01221A6001F0B0F851
:10048C0000F07DFB0120FFF75BFEA5E0254B002271
:10049C001A6001F085F901F003F9264B1B68002B5B
:1004AC000AD1264B1B68234A1360244B1B681F4A36
:1004BC0013601B4B09221A600020FFF741FE034614
:1004CC00002B11D0174B04221A60154B1B681C4AC9
:1004DC001360134B0A221A60144B00221A60154B3E
:1004EC0000221A6000F04BFB0020FFF743FE03468E
:1004FC00002B10D00B4B01221A60094B0A221A60F8
:10050C000B4B1B680C4A1360084B01221A6001F05C
:10051C0067F800F034FB0120FFF712FE5CE000BF2F
:10052C00380000203400002048000020E8000020A3
:10053C0040000020EC000020F000002044000020CF
:10054C003C000020254B00221A6001F029F901F033
:10055C00C7F8234B1B68002B0AD1224B06221A60CA
:10056C00214B1B68214A1360214B1B681C4A1360EA
:10057C000020FFF7E5FD0346002B11D0174B04229A
:10058C001A60184B1B681B4A1360164B0A221A6020
:10059C00164B00221A60124B02221A6000F0EFFA7E
:1005AC000020FFF7E7FD0346002B10D00B4B012278
:1005BC001A600C4B0A221A600D4B1B680E4A136012
:1005CC000A4B01221A6001F00BF800F0D8FA012056
:1005DC00FFF7B6FD00E000BF00BF80BD3400002077
:1005EC00EC0000203800002048000020E80000202B
:1005FC00400000203C000020F000002080B500AF3F
:10060C0001F0CEF8664B1B68063B042B00F2C6804B
:10061C0001A252F823F000BF390600089706000823
:10062C00ED060008490700089F07000800F0F8FFD6
:10063C000020FFF785FD0346002B14D0584B1B6898
:10064C00584A1360564B0A221A60574B00221A6004
:10065C00564B1B68564A1360564B1B68564A136020
:10066C000020FFF787FD0120FFF76AFD0346002BF2
:10067C0000F091804A4B07221A60504B1B684C4A81
:10068C0013604D4B00221A6085E000F0E9FF484BE7
:10069C001B68002B05D1424B08221A60464B0022E6
:1006AC001A600020FFF74CFD0346002B14D03C4B86
:1006BC001B683C4A13603A4B0A221A603A4B0022E0
:1006CC001A603E4B1B683A4A13603C4B1B683A4A13
:1006DC0013600020FFF74EFD0120FFF731FD5DE0B8
:1006EC0000F0DEFF0020FFF72BFD0346002B14D09B
:1006FC002B4B1B682B4A1360294B0A221A602A4B7E
:10070C0000221A602B4B1B68294A1360274B1B686D
:10071C00294A13600020FFF72DFD0120FFF710FD83
:10072C000346002B39D01E4B09221A60204B0022A5
:10073C001A60224B1B68204A13602EE000F0D0FF99
:10074C001D4B1B68002B05D1154B06221A60184B4C
:10075C0000221A600020FFF7F3FC0346002B14D094
:10076C000F4B1B680F4A13600D4B0A221A600E4B7D
:10077C0000221A60114B1B680D4A13600F4B1B684B
:10078C000D4A13600020FFF7F5FC0120FFF7D8FCA1
:10079C0004E000BF02E000BF00E000BF00BF80BD6E
:1007AC003C000020380000203400002048000020CD
:1007BC00E800002040000020EC0000204400002055
:1007CC0080B500AF834B1B68032B00F0AF80032B6D
:1007DC0000F3F780012B02D0022B5BD0F1E000F08C
:1007EC00DFFF7D4B1B68002B04D17B4B01221A6071
:1007FC0000F096FF0020FFF7A3FC0346002B0DD062
:10080C00744B02221A60754B1B68754A1360724B4D
:10081C0001221A6000F0E4FE00F0B1F90120FFF7AC
:10082C008FFC0346002B0FD06D4B1B68632B06D13E
:10083C006C4B1B686A4A136000F0A1F904E0684B2A
:10084C001B680133664A13600020FFF793FC0346D4
:10085C00002B00F0B880624B1A68604B1B689A4200
:10086C0007DD5F4B1A685D4B1B68D31A5E4A136039
:10087C0006E05A4B1A685A4B1B68D31A5A4A136033
:10088C00574B1B68574A1360584B05221A6000F0EF
:10089C00A7FE98E000F084FF4F4B1B68002B04D19F
:1008AC004D4B01221A6000F057FF0020FFF748FC67
:1008BC000346002B0DD0474B03221A604A4B1B6892
:1008CC00474A1360444B01221A6000F089FE00F085
:1008DC0056F90120FFF734FC0346002B0FD0404B98
:1008EC001B68632B06D13D4B1B683D4A136000F01F
:1008FC0046F904E03A4B1B680133394A1360002077
:10090C00FFF738FC0346002B5FD0354B1A68364B8B
:10091C001B681344334A1360314B1B682F4A136016
:10092C00324B05221A6000F05BFE4EE000F038FFFF
:10093C00294B1B68002B04D1274B01221A6000F0B5
:10094C001DFF0020FFF7FCFB0346002B0DD0214BB5
:10095C0001221A60234B1B68214A13601E4B012293
:10096C001A6000F03DFE00F00AF90120FFF7E8FBE9
:10097C000346002B0ED01A4B1B680133184A136028
:10098C00174B1B68632B05D1174B1B68144A13605C
:10099C0000F0F5F80020FFF7EDFB0346002B16D016
:1009AC000F4B1A680D4B1B6813440E4A13600C4B0B
:1009BC001B680D4A13600D4B05221A6000F010FEE7
:1009CC0005E000BF04E000BF02E000BF00E000BF94
:1009DC0000BF80BD34000020E8000020440000204F
:1009EC00F0000020400000204800002038000020CB
:1009FC0080B500AF0E4B1B68002B04D00C4B1B6852
:100A0C00013B0B4A13600B4B1B68002B04D0094BAA
:100A1C001B68013B074A1360054B1B68092B03D06D
:100A2C00044B1B68092B01D100F0A9F800BF80BD55
:100A3C00E8000020EC00002080B586B002AF034631
:100A4C00FB71FB7923F00F03FB73FB791B01BB7369
:100A5C00FB7B43F00C03DBB23B72FB7B43F00803E4
:100A6C00DBB27B72BB7B43F00C03DBB2BB72BB7B98
:100A7C0043F00803DBB2FB7207F108026423009316
:100A8C0004234221034801F0D9FB00BF1037BD46B7
:100A9C0080BD00BF0401002080B586B002AF0346C4
:100AAC00FB71FB7923F00F03FB73FB791B01BB7309
:100ABC00FB7B43F00D03DBB23B72FB7B43F0090382
:100ACC00DBB27B72BB7B43F00D03DBB2BB72BB7B37
:100ADC0043F00903DBB2FB7207F1080264230093B5
:100AEC0004234221034801F0A9FB00BF1037BD4687
:100AFC0080BD00BF0401002080B500AF3320FFF79C
:100B0C009BFF3220FFF798FF322000F033FF2820A4
:100B1C00FFF792FF322000F02DFF0120FFF78CFF32
:100B2C00322000F027FF0620FFF786FF322000F06E
:100B3C0021FF0C20FFF780FF322000F01BFF02206A
:100B4C00FFF77AFF322000F015FF8020FFF774FFCB
:100B5C0000BF80BD80B582B000AF786006E07B68D6
:100B6C005A1C7A601B781846FFF796FF7B681B7837
:100B7C00002BF4D100BF00BF0837BD4680BD80B547
:100B8C0000AF0120FFF758FF00BF80BD80B584B0D7
:100B9C0000AF786039607B68012B08D17B68DAB2D2
:100BAC003B68DBB21344DBB27F33FB7308E03B687A
:100BBC00DBB24033DBB25BB263F07F035BB2FB733F
:100BCC00FB7B1846FFF738FF00BF1037BD4680BDD2
:100BDC0080B500AF00F06CFE00F03AF800F01EF9A2
:100BEC0000F0F2F800F0A4F800F074F8134802F0EA
:100BFC00DBFA00F0C9F900F0F3FCFFF77DFFFFF71B
:100C0C00BEFF00210120FFF7C1FF642200210C4828
:100C1C0000F000FA642201210A4800F0FBF964227A
:100C2C000221094800F0F6F94FF47A7240F2F231E1
:100C3C00064800F0EFF900F0D1FAFCE7580100206B
:100C4C0009030008CD07000809060008FD09000883
:100C5C0080B590B000AF07F1180328220021184688
:100C6C0002F04CFF3B1D00221A605A609A60DA6059
:100C7C001A610223BB610123BB621023FB620223B6
:100C8C007B630023BB634FF46013FB6307F1180312
:100C9C00184601F02BFE0346002B01D000F06EF934
:100CAC000F237B600223BB60A023FB604FF48063A7
:100CBC003B6100237B613B1D0221184602F096F834
:100CCC000346002B01D000F059F900BF4037BD4658
:100CDC0080BD000080B500AF124B134A1A60114B57
:100CEC00124A5A600F4B00229A600E4B0022DA60B7
:100CFC000C4B4FF480421A610A4B00225A61094B8B
:100D0C0000229A61074B0022DA61064B00221A621C
:100D1C00044801F04FF90346002B01D000F02EF9E6
:100D2C0000BF80BD0401002000540040A0860100DB
:100D3C0080B586B000AF07F1080300221A605A6034
:100D4C009A60DA603B4600221A605A601D4B4FF0E5
:100D5C0080421A601B4B41F63F725A60194B0022BD
:100D6C009A60184B0922DA60164B00221A61154B57
:100D7C0000229A61134802F0C7F90346002B01D0F8
:100D8C0000F0FCF84FF48053BB6007F108031946E0
:100D9C000C4802F04BFB0346002B01D000F0EEF8A0
:100DAC0000233B6000237B603B461946054802F05C
:100DBC002DFD0346002B01D000F0E0F800BF1837E2
:100DCC00BD4680BD5801002080B500AF114B124AC2
:100DDC001A60104B4FF4E1325A600E4B00229A60AD
:100DEC000C4B0022DA600B4B00221A61094B0C22CF
:100DFC005A61084B00229A61064B0022DA610548C1
:100E0C0002F074FD0346002B01D000F0B7F800BFD0
:100E1C0080BD00BFA00100200044004080B588B018
:100E2C0000AF07F1100300221A605A609A60DA6072
:100E3C00474B9B69464A43F010039361444B9B69B3
:100E4C0003F01003FB60FB68414B9B69404A43F085
:100E5C00200393613E4B9B6903F02003BB60BB688E
:100E6C003B4B9B693A4A43F004039361384B9B69B3
:100E7C0003F004037B607B68354B9B69344A43F079
:100E8C0008039361324B9B6903F008033B603B689A
:100E9C0000224FF448712F4801F039F800228021CC
:100EAC002D4801F034F8002240212C4801F02FF895
:100EBC004FF400533B612A4B7B610023BB6107F16C
:100ECC0010031946244800F087FE03233B610023DE
:100EDC007B610023BB6107F1100319461D4800F02C
:100EEC007BFE4FF448733B6101237B610023BB61A4
:100EFC000223FB6107F110031946164800F06CFE43
:100F0C0080233B6101237B610023BB610223FB61D6
:100F1C0007F110031946104800F05EFE40233B61B8
:100F2C0001237B610023BB610223FB6107F11003EA
:100F3C0019460A4800F050FE00220021282000F03B
:100F4C0014FE282000F02DFE00BF2037BD4680BDCA
:100F5C00001002400008014000100140000C01404C
:100F6C000000111080B582B000AF786000F012F96B
:100F7C00FFF71AF900BF0837BD4680BD80B400AF3B
:100F8C0072B600BFFEE7000080B483B000AF002350
:100F9C007B6033E01E497A6813469B0013449B0028
:100FAC000B4400221A601A497A6813469B001344BA
:100FBC009B000B44043300221A6015497A681346CF
:100FCC009B0013449B000B44083300221A60104909
:100FDC007A6813469B0013449B000B440C3300228D
:100FEC001A700B497A6813469B0013449B000B4400
:100FFC0010330A221A607B6801337B607B68092BF3
:10100C00C8DD00BF00BF0C37BD4680BC704700BFB9
:10101C00E8010020B0B487B000AFF860B9607A6026
:10102C00594B1B780A2B00F0AA80BB68574AA2FBCD
:10103C000323DB08BB6000237B611AE054497A6907
:10104C0013469B0013449B000B4404331B68BA6883
:10105C009A4215D34E497A6913469B0013449B0060
:10106C000B4404331B68BA68D31ABB607B69013329
:10107C007B61454B1B781A467B699342DEDB00E0B3
:10108C0000BF414B1B783B6121E03B695A1E404835
:10109C0039690B469B000B449B0018443C49134692
:1010AC009B0013449B000B4404461D460FCD0FC4FC
:1010BC002B682360396936483A6913469B00134400
:1010CC009B000344103319603B69013B3B613A6957
:1010DC007B699A42D9DC2E497A6913469B001344EA
:1010EC009B000B44FA681A6029497A6913469B00E5
:1010FC0013449B000B440433BA681A6024497A6980
:10110C0013469B0013449B000B4408337A681A6007
:10111C001F497A6913469B0013449B000B440C3304
:10112C0000221A7079691A487A6913469B00134495
:10113C009B00034410331960134B1B781A467B69D0
:10114C00934215DA7B695A1C114913469B001344D0
:10115C009B000B44043319687B695A1CBB68C91A81
:10116C000B4813469B0013449B0003440433196043
:10117C00054B1B780133DAB2034B1A7000E000BF49
:10118C001C37BD46B0BC7047F4000020CDCCCCCC95
:10119C00E801002080B400AF0F4B1B68002B17D068
:1011AC000D4B5B68002B05D00B4B5B68013B0A4A6F
:1011BC0053600DE0084B1B7B0133DAB2064B1A73FC
:1011CC00054B9B68002B03D0034B9B68024A536072
:1011DC0000BFBD4680BC7047E8010020B0B586B0AA
:1011EC0000AF144B1B7B002B20D0124B1B7B013B05
:1011FC00DAB2104B1A730F4B1B6898470D4B9B6858
:10120C00002B10D00B4B3C1D1D460FCD0FC42B6873
:10121C002360002000F010F87B68B968FA68184663
:10122C00FFF7F8FE02E0002000F006F800BF1837C8
:10123C00BD46B0BDE8010020B0B485B000AF786009
:10124C007B68FB6021E0FB685A1C3648F9680B464A
:10125C009B000B449B001844324913469B001344DB
:10126C009B000B4404461D460FCD0FC42B68236016
:10127C00F9682C48FA6813469B0013449B000344FE
:10128C0010331960FB680133FB60274B1B78013B63
:10129C00FA689A42D7D1244B1B781946214A0B463F
:1012AC009B000B449B00134400221A601E4B1B78BE
:1012BC0019461C4A0B469B000B449B0013440433F9
:1012CC0000221A60184B1B781946164A0B469B00D5
:1012DC000B449B001344083300221A60124B1B78FA
:1012EC001946104A0B469B000B449B0013440C33CD
:1012FC0000221A700C4B1B7819460A4A0B469B00AD
:10130C000B449B00134410330A221A60064B1B78C3
:10131C00013BDAB2044B1A7000BF1437BD46B0BCA7
:10132C00704700BFE8010020F400002080B485B0B5
:10133C0000AF154B9B69144A43F001039361124BA8
:10134C009B6903F00103BB60BB680F4BDB690E4A62
:10135C0043F08053D3610C4BDB6903F080537B600B
:10136C007B680A4B5B68FB60FB6823F0E063FB6007
:10137C00FB6843F00073FB60044AFB68536000BFDA
:10138C001437BD4680BC704700100240000001407D
:10139C0080B58AB000AF786007F1140300221A60A0
:1013AC005A609A60DA607B681B681D4A934232D19E
:1013BC001C4B9B691B4A43F008039361194B9B69B7
:1013CC0003F008033B613B694FF440737B611223CC
:1013DC00BB6103233B6207F114031946124800F06A
:1013EC00FBFB124B5B687B627B6A43F0E0637B62C6
:1013FC007B6A43F002037B620C4A7B6A5360094BA5
:10140C00DB69084A43F40013D361064BDB6903F430
:10141C000013FB60FB6800BF2837BD4680BD00BFD2
:10142C000054004000100240000C0140000001403C
:10143C0080B584B000AF78607B681B68B3F1804FD7
:10144C0013D10C4BDB690B4A43F00103D361094BFD
:10145C00DB6903F00103FB60FB68002200211C2008
:10146C0000F083FB1C2000F09CFB00BF1037BD4636
:10147C0080BD00BF0010024080B588B000AF78601E
:10148C0007F1100300221A605A609A60DA607B68D8
:10149C001B68154A934223D1144BDB69134A43F45E
:1014AC000033D361114BDB6903F40033FB60FB6841
:1014BC000E4B9B690D4A43F0040393610B4B9B69E4
:1014CC0003F00403BB60BB680C233B6102237B610C
:1014DC000223FB6107F110031946054800F07CFB61
:1014EC0000BF2037BD4680BD0044004000100240C4
:1014FC000008014080B400AFFEE780B400AFFEE707
:10150C0080B400AFFEE780B400AFFEE780B400AF5C
:10151C00FEE780B400AF00BFBD4680BC704780B40E
:10152C0000AF00BFBD4680BC704780B400AF00BFA9
:10153C00BD4680BC704780B500AF00F0FFF900BF1E
:10154C0080BD000080B500AF024801F07FFE00BFF7
:10155C0080BD00BF5801002080B500AF4FF4005093
:10156C0000F006FD00BF80BD80B586B000AF78608E
:10157C00144A154BD31A7B617B693B61134B1B6877
:10158C00002B02D1114B124A1A60104B1A687B685F
:10159C0013443A699A4207D202F086FA03460C22A7
:1015AC001A604FF0FF3309E0084B1B68FB60074BD8
:1015BC001A687B681344054A1360FB681846183791
:1015CC00BD4680BD0050002000040000F800002043
:1015DC00D802002080B400AF00BFBD4680BC70476D
:1015EC0080B500AF002280210A4800F090FC002258
:1015FC004021094800F08BFC00224FF48071074811
:10160C0000F085FC00224FF40071044800F07FFCD0
:10161C0000BF80BD00100140000C014000080140DB
:10162C0080B500AF012280210A4800F070FC002236
:10163C004021094800F06BFC01224FF480710748EF
:10164C0000F065FC01224FF40071044800F05FFCCF
:10165C0000BF80BD00100140000C0140000801409B
:10166C0080B500AF002280210A4800F050FC012216
:10167C004021094800F04BFC01224FF480710748CF
:10168C0000F045FC01224FF40071044800F03FFCCF
:10169C0000BF80BD00100140000C0140000801405B
:1016AC0080B500AF012280210A4800F030FC0122F5
:1016BC004021094800F02BFC01224FF480710748AF
:1016CC0000F025FC00224FF40071044800F01FFCD0
:1016DC0000BF80BD00100140000C0140000801401B
:1016EC0080B500AF012280210A4800F010FC0122D5
:1016FC004021094800F00BFC00224FF48071074890
:10170C0000F005FC01224FF40071044800F0FFFBCF
:10171C0000BF80BD00100140000C014000080140DA
:10172C0080B500AF8021094800F009FC4021084831
:10173C0000F005FC4FF48071064800F000FC4FF4FB
:10174C000071044800F0FBFB00BF80BD001001409D
:10175C00000C01400008014080B500AF4021054855
:10176C0000F0EDFB4FF40071034800F0E8FB00BF04
:10177C0080BD00BF000C01400008014080B500AFE7
:10178C008021054800F0DBFB4FF48071034800F02A
:10179C00D6FB00BF80BD00BF001001400008014017
:1017AC0080B500AF00210020FFF7F0F9234B1B6838
:1017BC001A462349234802F0A9F92248FFF7CAF92F
:1017CC0000210120FFF7E2F91C4B1B68002B03D012
:1017DC001A4B1B68042B08D11B4B1A681B4B1B683C
:1017EC001B49184802F092F922E0144B1B68012B9C
:1017FC0007D1184B1B681A461749124802F086F994
:10180C0016E00E4B1B68022B07D1124B1B681A46B5
:10181C0012490C4802F07AF90AE0084B1B68032BBA
:10182C0006D10C4B1B681A460D49064802F06EF99E
:10183C000448FFF78FF900BF80BD00BF34000020C3
:10184C00A4430008B0020020E8000020EC000020B7
:10185C00AC430008F0000020C0430008C843000857
:10186C00D0430008FFF7B6FE0B480C490C4A002386
:10187C0002E0D458C4500433C4188C42F9D3094A3A
:10188C00094C002301E013600432A242FBD302F0A6
:10189C0011F9FFF79DF9704700000020BC000020F3
:1018AC0040440008BC000020D4020020FEE70000E9
:1018BC0080B500AF084B1B68074A43F01003136058
:1018CC00032000F047F9002000F008F8FFF72EFD88
:1018DC000023184680BD00BF0020024080B582B0B6
:1018EC0000AF7860124B1A68124B1B7819464FF4F4
:1018FC007A73B3FBF1F3B2FBF3F3184600F05FF924
:10190C000346002B01D001230EE07B680F2B0AD875
:10191C00002279684FF0FF3000F027F9064A7B6807
:10192C001360002300E0012318460837BD4680BD34
:10193C004C000020540000205000002080B400AF68
:10194C00054B1B781A46054B1B681344034A13605E
:10195C0000BFBD4680BC704754000020C002002070
:10196C0080B400AF024B1B681846BD4680BC704764
:10197C00C002002080B584B000AF7860FFF7F0FFA4
:10198C00B8607B68FB60FB68B3F1FF3F05D00A4B86
:10199C001B781A46FB681344FB6000BFFFF7E0FF9F
:1019AC000246BB68D31AFA689A42F7D800BF00BF48
:1019BC001037BD4680BD00BF5400002080B485B0F8
:1019CC0000AF78607B6803F00703FB600C4BDB68AF
:1019DC00BB60BA684FF6FF031340BB60FB681A028A
:1019EC00BB68134343F0BF6343F40033BB60044A4A
:1019FC00BB68D36000BF1437BD4680BC704700BFC6
:101A0C0000ED00E080B400AF044BDB681B0A03F070
:101A1C0007031846BD4680BC704700BF00ED00E0D0
:101A2C0080B483B000AF0346FB7197F90730002BED
:101A3C000BDBFB7903F01F02064997F907305B09B2
:101A4C00012000FA02F241F8232000BF0C37BD46FA
:101A5C0080BC704700E100E080B483B000AF034667
:101A6C003960FB7197F90730002B0ADB3B68DAB25F
:101A7C000C4997F907301201D2B20B4483F80023BA
:101A8C000AE03B68DAB20849FB7903F00F03043B28
:101A9C001201D2B20B441A7600BF0C37BD4680BC83
:101AAC00704700BF00E100E000ED00E080B489B0B9
:101ABC0000AFF860B9607A60FB6803F00703FB6164
:101ACC00FB69C3F10703042B28BF0423BB61FB692B
:101ADC000433062B02D9FB69033B00E000237B6136
:101AEC004FF0FF32BB6902FA03F3DA43BB681A40CA
:101AFC007B699A404FF0FF317B6901FA03F3D943BC
:101B0C007B680B40134318462437BD4680BC704796
:101B1C0080B582B000AF78607B68013BB3F1807F09
:101B2C0001D301230FE00A4A7B68013B53600F216C
:101B3C004FF0FF30FFF790FF054B00229A60044BEB
:101B4C0007221A60002318460837BD4680BD00BF27
:101B5C0010E000E080B582B000AF78607868FFF7E5
:101B6C002DFF00BF0837BD4680BD80B586B000AFE5
:101B7C000346B9607A60FB7300237B61FFF742FF79
:101B8C0078617A68B9687869FFF790FF024697F92F
:101B9C000F3011461846FFF75FFF00BF1837BD46E0
:101BAC0080BD80B582B000AF0346FB7197F907305A
:101BBC001846FFF735FF00BF0837BD4680BD80B51E
:101BCC0082B000AF78607868FFF7A2FF0346184632
:101BDC000837BD4680BD000080B48BB000AF786084
:101BEC00396000237B6200233B6269E101227B6A3E
:101BFC0002FA03F3FB613B681B68FA691340BB6193
:101C0C00BA69FB699A4240F058813B685B689A4A12
:101C1C0093425ED0984A934275D8984A934258D0D2
:101C2C00964A93426FD8964A934252D0944A934222
:101C3C0069D8944A93424CD0924A934263D8924AC0
:101C4C00934246D0904A93425DD8122B2AD8122B3D
:101C5C0059D801A252F823F0DF1C0008B91C000867
:101C6C00CB1C00080D1D0008131D0008131D0008D7
:101C7C00131D0008131D0008131D0008131D000878
:101C8C00131D0008131D0008131D0008131D000868
:101C9C00131D0008131D0008131D0008C11C0008AB
:101CAC00D51C0008794A934213D02CE03B68DB68C2
:101CBC003B6229E03B68DB6804333B6224E03B6811
:101CCC00DB6808333B621FE03B68DB680C333B622C
:101CDC001AE03B689B68002B02D104233B6213E0A3
:101CEC003B689B68012B05D108233B627B68FA6932
:101CFC001A6109E008233B627B68FA695A6103E0C8
:101D0C0000233B6200E000BFBB69FF2B01D87B685E
:101D1C0001E07B6804337B61BB69FF2B02D87B6AD3
:101D2C009B0002E07B6A083B9B003B617B691A6865
:101D3C000F213B6901FA03F3DB431A40396A3B6913
:101D4C0001FA03F31A437B691A603B685B6803F082
:101D5C008053002B00F0B1804D4B9B694C4A43F0F3
:101D6C00010393614A4B9B6903F00103BB60BB68A1
:101D7C00484A7B6A9B08023352F82330FB607B6A2B
:101D8C0003F003039B000F2202FA03F3DB43FA6810
:101D9C001340FB607B68404A934213D07B683F4AF8
:101DAC0093420DD07B683E4A934207D07B683D4AF4
:101DBC00934201D1032306E0042304E0022302E052
:101DCC00012300E000237A6A02F0030292009340A0
:101DDC00FA681343FB602F497B6A9B080233FA684D
:101DEC0041F823203B685B6803F48013002B06D07A
:101DFC002D4B9A682C49BB6913438B6006E02A4B28
:101E0C009A68BB69DB43284913408B603B685B686D
:101E1C0003F40013002B06D0234BDA682249BB696C
:101E2C001343CB6006E0204BDA68BB69DB431E49E9
:101E3C001340CB603B685B6803F40033002B06D087
:101E4C00194B5A681849BB6913434B6006E0164B93
:101E5C005A68BB69DB43144913404B603B685B68B1
:101E6C0003F48033002B21D00F4B1A680E49BB6949
:101E7C0013430B6021E000BF000032100000311052
:101E8C0000002210000021100000121000001110A0
:101E9C00001002400000014000080140000C01400D
:101EAC000010014000140140000401400B4B1A6863
:101EBC00BB69DB43094913400B607B6A01337B62CE
:101ECC003B681A687B6A22FA03F3002B7FF48EAE10
:101EDC0000BF00BF2C37BD4680BC704700040140DA
:101EEC0080B485B000AF78600B467B807B689A68C5
:101EFC007B881340002B02D00123FB7301E00023ED
:101F0C00FB73FB7B18461437BD4680BC704780B40E
:101F1C0083B000AF78600B467B8013467B707B7878
:101F2C00002B03D07A887B681A6103E07B881A0443
:101F3C007B681A6100BF0C37BD4680BC704780B40B
:101F4C0085B000AF78600B467B807B68DB68FB60FC
:101F5C007A88FB6813401A04FB68D9437B880B40D2
:101F6C001A437B681A6100BF1437BD4680BC7047AA
:101F7C0080B582B000AF0346FB80084B5A69FB88E2
:101F8C001340002B06D0054AFB885361FB8818468A
:101F9C0000F006F800BF0837BD4680BD00040140C4
:101FAC0080B483B000AF0346FB8000BF0C37BD4646
:101FBC0080BC704780B584B000AF78607B68002B24
:101FCC0001D101232BE17B6893F83D30DBB2002B70
:101FDC0006D17B68002283F83C207868FFF7D8F99B
:101FEC007B68242283F83D207B681B681A687B6819
:101FFC001B6822F001021A607B681B681A687B68F8
:10200C001B6842F400421A607B681B681A687B6884
:10201C001B6822F400421A6001F030F8F8607B680B
:10202C005B68814A934207D8FB68804A934294BF0D
:10203C0001230023DBB206E0FB687D4A934294BF88
:10204C0001230023DBB2002B01D00123E7E0FB6866
:10205C00784AA2FB03239B0CBB607B681B685B6804
:10206C0023F03F017B681B68BA680A435A607B689F
:10207C001B681B6A23F03F017B685B686A4A9342CA
:10208C0002D8BB68013309E0BB684FF4967202FBBF
:10209C0003F3694AA2FB03239B0901337A68126894
:1020AC000B4313627B681B68DB6923F44F4222F0FD
:1020BC00FF027B685B685C498B4219D8FB68591E30
:1020CC007B685B685B00B1FBF3F3591C40F6FC7357
:1020DC000B40002B0AD0FB68591E7B685B685B00C9
:1020EC00B1FBF3F30133C3F30B0351E004234FE0D3
:1020FC007B689B68002B11D1FB68581E7B68596864
:10210C000B465B000B44B0FBF3F30133C3F30B033F
:10211C00002B0CBF01230023DBB212E0FB68581E1E
:10212C007B6859680B469B000B4499000B44B0FB31
:10213C00F3F30133C3F30B03002B0CBF0123002378
:10214C00DBB2002B01D0012322E07B689B68002BC3
:10215C000ED1FB68581E7B6859680B465B000B441C
:10216C00B0FBF3F30133C3F30B0343F400430FE071
:10217C00FB68581E7B6859680B469B000B44990002
:10218C000B44B0FBF3F30133C3F30B0343F44043B1
:10219C00796809681343CB617B681B681B6823F063
:1021AC00C0017B68DA697B681B6A1A437B681B6811
:1021BC000A431A607B681B689B6823F4034323F073
:1021CC00FF037A6811697A68D26811437A681268D9
:1021DC000B4393607B681B68DB6823F0FF017B6813
:1021EC005A697B689B691A437B681B680A43DA60EF
:1021FC007B681B681A687B681B6842F001021A60D6
:10220C007B6800221A647B68202283F83D207B685F
:10221C0000221A637B68002283F83E2000231846B4
:10222C001037BD4680BD00BFA08601007F841E0014
:10223C00FF083D0083DE1B43D34D621080B588B090
:10224C0002AFF8607A601A460B467B8113463B81DD
:10225C00FFF786FB7861FB6893F83D30DBB2202BEF
:10226C0040F0E0807B690093192301227049F868E3
:10227C0000F064F90346002B01D00223D3E0FB6885
:10228C0093F83C30012B01D10223CCE0FB680122F6
:10229C0083F83C20FB681B681B6803F00103012BCF
:1022AC0007D0FB681B681A68FB681B6842F00102C8
:1022BC001A60FB681B681A68FB681B6822F40062D2
:1022CC001A60FB68212283F83D20FB68102283F8FA
:1022DC003E20FB6800221A64FB687A685A62FB682D
:1022EC003A895A85FB685B8D9AB2FB681A85FB6844
:1022FC00504ADA6279897B693A6AF86800F09CF88E
:10230C000346002B01D001238DE000233B61FB68C9
:10231C001B685B693B61FB681B689B693B613B69A4
:10232C0066E07A69396AF86800F022FA0346002BF5
:10233C000DD0FB681B6C042B07D1FB681B681A685B
:10234C00FB681B6842F400721A6001236BE0FB68A7
:10235C005B6A1A78FB681B681A61FB685B6A5A1C1B
:10236C00FB685A62FB685B8D9BB2013B9AB2FB68BF
:10237C005A85FB681B8D013B9AB2FB681A85FB687A
:10238C001B685B6903F00403042B1BD1FB681B8DDA
:10239C00002B17D0FB685B6A1A78FB681B681A6104
:1023AC00FB685B6A5A1CFB685A62FB685B8D9BB2CC
:1023BC00013B9AB2FB685A85FB681B8D013B9AB2B4
:1023CC00FB681A857A69396AF86800F019FA0346CD
:1023DC00002B0DD0FB681B6C042B07D1FB681B6812
:1023EC001A68FB681B6842F400721A6001231AE039
:1023FC00FB681B8D002B94D1FB681B681A68FB686B
:10240C001B6842F400721A60FB68202283F83D209E
:10241C00FB68002283F83E20FB68002283F83C20F6
:10242C00002300E0022318461837BD4680BD00BFCC
:10243C00020010000000FFFF80B588B002AFF8600A
:10244C007A603B600B467B81FB68DB6A7B617B6956
:10245C00082B06D07B69012B03D07B6913F5803FD9
:10246C0008D1FB681B681A68FB681B6842F4807211
:10247C001A600BE0FB681B6B122B07D1FB681B6807
:10248C001A68FB681B6842F480721A603B68009300
:10249C007B6800224FF00111F86800F04FF80346FA
:1024AC00002B0DD0FB681B681B6803F48073B3F51D
:1024BC00807F03D1FB684FF400721A64032335E06C
:1024CC00FB681B69B3F5804F08D17B89DBB21A46D8
:1024DC00FB681B6802F0FE021A611BE07B89DB11B2
:1024EC00DBB203F00603DBB263F00F03DAB2FB6876
:1024FC001B681A613B687A680E49F86800F098F816
:10250C000346002B01D0012310E07B89DAB2FB6873
:10251C001B681A613B687A680749F86800F088F80C
:10252C000346002B01D0012300E000231846183786
:10253C00BD4680BD080001000200010080B584B0DA
:10254C0000AFF860B9603B601346FB7148E03B6834
:10255C00B3F1FF3F44D0FFF703FA0246BB69D31A2D
:10256C003A689A4202D33B68002B39D1BB681B0CEA
:10257C00DBB2012B0DD1FB681B685B69DA43BB68CE
:10258C0013409BB2002B0CBF01230023DBB21A4675
:10259C000CE0FB681B689B69DA43BB6813409BB279
:1025AC00002B0CBF01230023DBB21A46FB799A42A5
:1025BC0016D1FB6800221A63FB68202283F83D20A9
:1025CC00FB68002283F83E20FB681B6C43F0200262
:1025DC00FB681A64FB68002283F83C20012323E08B
:1025EC00BB681B0CDBB2012B0DD1FB681B685B6954
:1025FC00DA43BB6813409BB2002B0CBF01230023B2
:10260C00DBB21A460CE0FB681B689B69DA43BB68BB
:10261C0013409BB2002B0CBF01230023DBB21A46E4
:10262C00FB799A4293D0002318461037BD4680BDE3
:10263C0080B584B000AFF860B9607A603B6071E03F
:10264C00FB681B685B6903F48063B3F5806F23D16F
:10265C00FB681B681A68FB681B6842F400721A60FE
:10266C00FB681B686FF480625A61FB6800221A6376
:10267C00FB68202283F83D20FB68002283F83E2073
:10268C00FB681B6C43F00402FB681A64FB680022B5
:10269C0083F83C20012367E07B68B3F1FF3F41D016
:1026AC00FFF75EF902463B68D31A7A689A4202D366
:1026BC007B68002B36D1BB681B0CDBB2012B0CD119
:1026CC00FB681B685B69DA43BB6813409BB2002B49
:1026DC0014BF01230023DBB20BE0FB681B689B6972
:1026EC00DA43BB6813409BB2002B14BF01230023B9
:1026FC00DBB2002B16D0FB6800221A63FB68202289
:10270C0083F83D20FB68002283F83E20FB681B6C9D
:10271C0043F02002FB681A64FB68002283F83C201B
:10272C00012321E0BB681B0CDBB2012B0CD1FB6835
:10273C001B685B69DA43BB6813409BB2002B14BF68
:10274C0001230023DBB20BE0FB681B689B69DA43B7
:10275C00BB6813409BB2002B14BF01230023DBB2D8
:10276C00002B7FF46DAF002318461037BD4680BD9B
:10277C0080B584B000AFF860B9607A6034E0F86876
:10278C0000F086F80346002B01D0012334E0BB682F
:10279C00B3F1FF3F28D0FFF7E3F802467B68D31A6A
:1027AC00BA689A4202D3BB68002B1DD1FB681B6828
:1027BC005B6903F08003802B16D0FB6800221A6340
:1027CC00FB68202283F83D20FB68002283F83E2022
:1027DC00FB681B6C43F02002FB681A64FB68002248
:1027EC0083F83C20012307E0FB681B685B6903F05E
:1027FC008003802BC3D1002318461037BD4680BD03
:10280C0080B584B000AFF860B9607A6034E0F868E5
:10281C0000F03EF80346002B01D0012334E0BB68E6
:10282C00B3F1FF3F28D0FFF79BF802467B68D31A21
:10283C00BA689A4202D3BB68002B1DD1FB681B6897
:10284C005B6903F00403042B16D0FB6800221A63A7
:10285C00FB68202283F83D20FB68002283F83E2091
:10286C00FB681B6C43F02002FB681A64FB680022B7
:10287C0083F83C20012307E0FB681B685B6903F0CD
:10288C000403042BC3D1002318461037BD4680BD6A
:10289C0080B483B000AF78607B681B685B6903F41D
:1028AC008063B3F5806F1BD17B681B686FF480620B
:1028BC005A617B6800221A637B68202283F83D20D2
:1028CC007B68002283F83E207B681B6C43F004027B
:1028DC007B681A647B68002283F83C20012300E0AB
:1028EC00002318460C37BD4680BC704780B586B0B7
:1028FC0000AF78607B68002B01D101236CE27B6810
:10290C001B6803F00103002B00F08780924B5B687F
:10291C0003F00C03042B0CD08F4B5B6803F00C03FF
:10292C00082B12D18C4B5B6803F48033B3F5803FDA
:10293C000BD1894B1B6803F40033002B6CD07B68E4
:10294C005B68002B68D1012346E27B685B68B3F5BA
:10295C00803F06D1804B1B687F4A43F48033136061
:10296C002EE07B685B68002B0CD17B4B1B687A4A92
:10297C0023F480331360784B1B68774A23F480234D
:10298C0013601DE07B685B68B3F5A02F0CD1724B14
:10299C001B68714A43F4802313606F4B1B686E4AAB
:1029AC0043F4803313600BE06B4B1B686A4A23F4CF
:1029BC0080331360684B1B68674A23F480231360D1
:1029CC007B685B68002B13D0FEF7CAFF386108E008
:1029DC00FEF7C6FF02463B69D31A642B01D90323C9
:1029EC00FAE15D4B1B6803F40033002BF0D014E0CC
:1029FC00FEF7B6FF386108E0FEF7B2FF02463B690E
:102A0C00D31A642B01D90323E6E1534B1B6803F45F
:102A1C000033002BF0D100E000BF7B681B6803F093
:102A2C000203002B63D04C4B5B6803F00C03002BB0
:102A3C000BD0494B5B6803F00C03082B1CD1464BA5
:102A4C005B6803F48033002B16D1434B1B6803F0F7
:102A5C000203002B05D07B681B69012B01D00123DD
:102A6C00BAE13D4B1B6823F0F8027B685B69DB0025
:102A7C00394913430B603AE07B681B69002B20D06B
:102A8C00364B01221A60FEF76BFF386108E0FEF747
:102A9C0067FF02463B69D31A022B01D903239BE142
:102AAC002D4B1B6803F00203002BF0D02A4B1B6844
:102ABC0023F0F8027B685B69DB00274913430B604A
:102ACC0015E0264B00221A60FEF74AFF386108E039
:102ADC00FEF746FF02463B69D31A022B01D90323AA
:102AEC007AE11D4B1B6803F00203002BF0D17B68CD
:102AFC001B6803F00803002B3AD07B689B69002B02
:102B0C0019D0174B01221A60FEF72AFF386108E032
:102B1C00FEF726FF02463B69D31A022B01D9032389
:102B2C005AE10D4B5B6A03F00203002BF0D001203D
:102B3C0000F0CCFA1CE00A4B00221A60FEF710FFE2
:102B4C0038610FE0FEF70CFF02463B69D31A022BEB
:102B5C0008D9032340E100BF0010024000004242AC
:102B6C00800442429E4B5B6A03F00203002BE9D1C6
:102B7C007B681B6803F00403002B00F0A680002385
:102B8C00FB75974BDB6903F08053002B0DD1944BF5
:102B9C00DB69934A43F08053D361914BDB6903F0BB
:102BAC008053BB60BB680123FB758E4B1B6803F421
:102BBC008073002B18D18B4B1B688A4A43F48073AB
:102BCC001360FEF7CDFE386108E0FEF7C9FE024641
:102BDC003B69D31A642B01D90323FDE0814B1B689D
:102BEC0003F48073002BF0D07B68DB68012B06D1DB
:102BFC007B4B1B6A7A4A43F0010313622DE07B681E
:102C0C00DB68002B0CD1764B1B6A754A23F0010351
:102C1C001362734B1B6A724A23F0040313621CE0A9
:102C2C007B68DB68052B0CD16D4B1B6A6C4A43F03F
:102C3C00040313626A4B1B6A694A43F00103136273
:102C4C000BE0674B1B6A664A23F001031362644B6B
:102C5C001B6A634A23F0040313627B68DB68002B56
:102C6C0015D0FEF77DFE38610AE0FEF779FE0246CC
:102C7C003B69D31A41F28832934201D90323ABE06A
:102C8C00574B1B6A03F00203002BEED014E0FEF747
:102C9C0067FE38610AE0FEF763FE02463B69D31A11
:102CAC0041F28832934201D9032395E04C4B1B6AC5
:102CBC0003F00203002BEED1FB7D012B05D1484B19
:102CCC00DB69474A23F08053D3617B68DB69002BB7
:102CDC0000F08180424B5B6803F00C03082B61D041
:102CEC007B68DB69022B46D13F4B00221A60FEF752
:102CFC0037FE386108E0FEF733FE02463B69D31A13
:102D0C00022B01D9032367E0354B1B6803F00073DA
:102D1C00002BF0D17B681B6AB3F5803F08D1304B98
:102D2C005B6823F400327B689B682D4913434B602E
:102D3C002B4B5B6823F474127B68196A7B685B6AA3
:102D4C000B43274913434B60274B01221A60FEF7B4
:102D5C0007FE386108E0FEF703FE02463B69D31A12
:102D6C00022B01D9032337E01D4B1B6803F00073C2
:102D7C00002BF0D02FE01C4B00221A60FEF7F0FD68
:102D8C00386108E0FEF7ECFD02463B69D31A022BD2
:102D9C0001D9032320E0124B1B6803F00073002BB6
:102DAC00F0D118E07B68DB69012B01D1012313E022
:102DBC000B4B5B68FB60FB6803F480327B681B6A1F
:102DCC009A4206D1FB6803F470127B685B6A9A42E4
:102DDC0001D0012300E0002318461837BD4680BD02
:102DEC0000100240007000406000424280B584B088
:102DFC0000AF786039607B68002B01D10123D0E0F3
:102E0C006A4B1B6803F007033A689A4210D9674B68
:102E1C001B6823F0070265493B6813430B60634B47
:102E2C001B6803F007033A689A4201D00123B8E00B
:102E3C007B681B6803F00203002B20D07B681B68A7
:102E4C0003F00403002B05D0594B5B68584A43F43C
:102E5C00E06353607B681B6803F00803002B05D00C
:102E6C00534B5B68524A43F460535360504B5B685E
:102E7C0023F0F0027B689B684D4913434B607B68E1
:102E8C001B6803F00103002B40D07B685B68012BAF
:102E9C0007D1474B1B6803F40033002B15D10123DA
:102EAC007FE07B685B68022B07D1414B1B6803F00A
:102EBC000073002B09D1012373E03D4B1B6803F019
:102ECC000203002B01D101236BE0394B5B6823F02B
:102EDC0003027B685B68364913434B60FEF740FD89
:102EEC00F8600AE0FEF73CFD0246FB68D31A41F29B
:102EFC008832934201D9032353E02D4B5B6803F0D6
:102F0C000C027B685B689B009A42EBD1274B1B68D9
:102F1C0003F007033A689A4210D2244B1B6823F043
:102F2C00070222493B6813430B60204B1B6803F0DC
:102F3C0007033A689A4201D0012332E07B681B6890
:102F4C0003F00403002B08D0194B5B6823F4E062F8
:102F5C007B68DB68164913434B607B681B6803F086
:102F6C000803002B09D0124B5B6823F460527B687A
:102F7C001B69DB000E4913434B6000F021F802463D
:102F8C000B4B5B681B0903F00F030A49CB5C22FA5D
:102F9C0003F3094A1360094B1B681846FEF79EFCA5
:102FAC00002318461037BD4680BD00BF00200240EC
:102FBC0000100240D84300084C00002050000020B4
:102FCC0080B487B000AF0023FB600023BB600023FC
:102FDC007B6100237B6000233B611E4B5B68FB60C5
:102FEC00FB6803F00C03042B02D0082B03D027E062
:102FFC00194B3B6127E0FB689B0C03F00F03174A4E
:10300C00D35C7B60FB6803F48033002B10D0114B36
:10301C005B685B0C03F00103114AD35CBB607B68FB
:10302C000D4A02FB03F2BB68B2FBF3F37B6104E0D5
:10303C007B680C4A02FB03F37B617B693B6102E01A
:10304C00054B3B6100BF3B6918461C37BD4680BC35
:10305C00704700BF0010024000127A00F0430008D5
:10306C000044000800093D0080B400AF024B1B680F
:10307C001846BD4680BC70474C00002080B500AFA0
:10308C00FFF7F2FF0246054B5B681B0A03F00703D0
:10309C000349CB5C22FA03F3184680BD00100240B2
:1030AC00E843000880B500AFFFF7DEFF0246054B92
:1030BC005B68DB0A03F007030349CB5C22FA03F3DA
:1030CC00184680BD00100240E843000880B485B06B
:1030DC0000AF78600A4B1B680A4AA2FB03235B0A09
:1030EC007A6802FB03F3FB6000BFFB685A1EFA60B0
:1030FC00002BF9D100BF00BF1437BD4680BC704710
:10310C004C000020D34D621080B582B000AF7860C7
:10311C007B68002B01D1012341E07B6893F83D30A3
:10312C00DBB2002B06D17B68002283F83C20786848
:10313C00FEF77EF97B68022283F83D207B681A68D3
:10314C007B6804331946104600F05CFA7B68012258
:10315C0083F846207B68012283F83E207B6801229D
:10316C0083F83F207B68012283F840207B68012292
:10317C0083F841207B68012283F842207B6801227E
:10318C0083F843207B68012283F844207B6801226A
:10319C0083F845207B68012283F83D2000231846E4
:1031AC000837BD4680BD000080B485B000AF7860A4
:1031BC007B6893F83D30DBB2012B01D001233AE060
:1031CC007B68022283F83D207B681B68DA687B6889
:1031DC001B6842F00102DA607B681B68184A934254
:1031EC000ED07B681B68B3F1804F09D07B681B68DD
:1031FC00144A934204D07B681B68134A934211D142
:10320C007B681B689B6803F00703FB60FB68062B5D
:10321C0010D07B681B681A687B681B6842F001023F
:10322C001A6007E07B681B681A687B681B6842F0B1
:10323C0001021A60002318461437BD4680BC704743
:10324C00002C0140000400400008004080B584B010
:10325C0000AF78607B681B68DB68FB607B681B6871
:10326C001B69BB60BB6803F00203002B20D0FB681A
:10327C0003F00203002B1BD07B681B686FF002026B
:10328C001A617B6801221A777B681B689B6903F0C3
:10329C000303002B03D0786800F098F905E07868F8
:1032AC0000F08BF9786800F09AF97B6800221A77A5
:1032BC00BB6803F00403002B20D0FB6803F004036D
:1032CC00002B1BD07B681B686FF004021A617B68B3
:1032DC0002221A777B681B689B6903F44073002BEE
:1032EC0003D0786800F072F905E0786800F065F9B1
:1032FC00786800F074F97B6800221A77BB6803F0D9
:10330C000803002B20D0FB6803F00803002B1BD014
:10331C007B681B686FF008021A617B6804221A77BD
:10332C007B681B68DB6903F00303002B03D0786810
:10333C0000F04CF905E0786800F03FF9786800F08F
:10334C004EF97B6800221A77BB6803F01003002B40
:10335C0020D0FB6803F01003002B1BD07B681B688C
:10336C006FF010021A617B6808221A777B681B6861
:10337C00DB6903F44073002B03D0786800F026F966
:10338C0005E0786800F019F9786800F028F97B6896
:10339C0000221A77BB6803F00103002B0CD0FB68EA
:1033AC0003F00103002B07D07B681B686FF0010250
:1033BC001A617868FDF7D6FDBB6803F08003002B1B
:1033CC000CD0FB6803F08003002B07D07B681B68D4
:1033DC006FF080021A61786800F07FFABB6803F026
:1033EC004003002B0CD0FB6803F04003002B07D0EC
:1033FC007B681B686FF040021A61786800F0F8F87F
:10340C00BB6803F02003002B0CD0FB6803F02003F7
:10341C00002B07D07B681B686FF020021A6178685C
:10342C0000F052FA00BF1037BD4680BD80B584B0A5
:10343C0000AF786039600023FB737B6893F83C30F5
:10344C00012B01D10223B4E07B68012283F83C20DC
:10345C007B68022283F83D207B681B689B68BB60FD
:10346C00BB6823F07703BB60BB6823F47F43BB606E
:10347C007B681B68BA689A603B681B68B3F5005F91
:10348C003ED0B3F5005F00F28780B3F5805F00F0AB
:10349C008680B3F5805F7FD8702B1AD0702B7BD8C9
:1034AC00602B50D0602B77D8502B3CD0502B73D83E
:1034BC00402B58D0402B6FD8302B64D0302B6BD88E
:1034CC00202B60D0202B67D8002B5CD0102B5AD02F
:1034DC0062E07B6818683B6899683B685A683B688F
:1034EC00DB6800F074F97B681B689B68BB60BB6889
:1034FC0043F07703BB607B681B68BA689A604FE047
:10350C007B6818683B6899683B685A683B68DB685D
:10351C0000F05DF97B681B689A687B681B6842F455
:10352C0080429A603CE07B6818683B6859683B684D
:10353C00DB681A4600F0D4F87B681B6850211846EB
:10354C0000F02BF92CE07B6818683B6859683B68E5
:10355C00DB681A4600F0F2F87B681B68602118469D
:10356C0000F01BF91CE07B6818683B6859683B68E5
:10357C00DB681A4600F0B4F87B681B6840211846DB
:10358C0000F00BF90CE07B681A683B681B68194665
:10359C00104600F002F903E00123FB7300E000BFCA
:1035AC007B68012283F83D207B68002283F83C2055
:1035BC00FB7B18461037BD4680BD80B483B000AF8E
:1035CC00786000BF0C37BD4680BC704780B483B0B8
:1035DC0000AF786000BF0C37BD4680BC704780B42C
:1035EC0083B000AF786000BF0C37BD4680BC70471D
:1035FC0080B483B000AF786000BF0C37BD4680BC90
:10360C007047000080B485B000AF786039607B688B
:10361C001B68FB607B682F4A93420BD07B68B3F12D
:10362C00804F07D07B682C4A934203D07B682B4A8F
:10363C00934208D1FB6823F07003FB603B685B6826
:10364C00FA681343FB607B68224A93420BD07B6879
:10365C00B3F1804F07D07B681F4A934203D07B683D
:10366C001E4A934208D1FB6823F44073FB603B680D
:10367C00DB68FA681343FB60FB6823F080023B684D
:10368C005B691343FB607B68FA681A603B689A6855
:10369C007B68DA623B681A687B689A627B680D4AC1
:1036AC00934203D13B681A697B681A637B680122D9
:1036BC005A617B681B6903F00103002B05D07B6802
:1036CC001B6923F001027B681A6100BF1437BD46E9
:1036DC0080BC7047002C01400004004000080040F2
:1036EC0080B487B000AFF860B9607A60FB681B6A81
:1036FC007B61FB681B6A23F00102FB681A62FB68A2
:10370C009B693B613B6923F0F0033B617B681B01C8
:10371C003A6913433B617B6923F00A037B617A6945
:10372C00BB6813437B61FB683A699A61FB687A69F1
:10373C001A6200BF1C37BD4680BC704780B487B08E
:10374C0000AFF860B9607A60FB681B6A7B61FB684C
:10375C001B6A23F01002FB681A62FB689B693B61D1
:10376C003B6923F470433B617B681B033A69134349
:10377C003B617B6923F0A0037B61BB681B017A6909
:10378C0013437B61FB683A699A61FB687A691A6238
:10379C0000BF1C37BD4680BC704780B485B000AFFD
:1037AC00786039607B689B68FB60FB6823F0700372
:1037BC00FB603A68FB68134343F00703FB607B68CC
:1037CC00FA689A6000BF1437BD4680BC704780B45D
:1037DC0087B000AFF860B9607A603B60FB689B68AB
:1037EC007B617B6923F47F437B613B681A027B68B6
:1037FC001A43BB6813437A6913437B61FB687A698C
:10380C009A6000BF1C37BD4680BC704780B485B041
:10381C0000AF786039607B6893F83C30012B01D1A4
:10382C00022346E07B68012283F83C207B6802225D
:10383C0083F83D207B681B685B68FB607B681B68BA
:10384C009B68BB60FB6823F07003FB603B681B68E4
:10385C00FA681343FB607B681B68FA685A607B68E4
:10386C001B68164A93420ED07B681B68B3F1804FDD
:10387C0009D07B681B68124A934204D07B681B6892
:10388C00104A93420CD1BB6823F08003BB603B68A9
:10389C005B68BA681343BB607B681B68BA689A6044
:1038AC007B68012283F83D207B68002283F83C2052
:1038BC00002318461437BD4680BC7047002C0140CD
:1038CC00000400400008004080B483B000AF786072
:1038DC0000BF0C37BD4680BC704780B483B000AFCE
:1038EC00786000BF0C37BD4680BC704780B582B095
:1038FC0000AF78607B68002B01D1012342E07B682C
:10390C0093F84130DBB2002B06D17B68002283F8A0
:10391C0040207868FDF7B0FD7B68242283F84120B5
:10392C007B681B68DA687B681B6822F40052DA60DB
:10393C00786800F02BF87B681B681A697B681B6839
:10394C0022F490421A617B681B685A697B681B6879
:10395C0022F02A025A617B681B68DA687B681B6854
:10396C0042F40052DA607B6800225A647B682022A1
:10397C0083F841207B68202283F842207B68002258
:10398C005A63002318460837BD4680BD80B584B005
:10399C0000AF78607B681B681B6923F440517B681F
:1039AC00DA687B681B680A431A617B689A687B68D3
:1039BC001B691A437B685B691343BB607B681B689C
:1039CC00DB6823F4B05323F00C037A681268B968EF
:1039DC000B43D3607B681B685B6923F440717B6885
:1039EC009A697B681B680A435A617B681B682C4A7E
:1039FC00934203D1FFF756FBF86002E0FFF73EFB62
:103A0C00F860FA6813469B0013449A001A447B68CA
:103A1C005B689B00B2FBF3F3224AA2FB03235B0916
:103A2C001901FA6813469B0013449A001A447B68E8
:103A3C005B689B00B2FBF3F21A4BA3FB02035B091E
:103A4C00642000FB03F3D31A1B013233154AA2FB8B
:103A5C0003235B0903F0F0031944FA6813469B0037
:103A6C0013449A001A447B685B689B00B2FBF3F228
:103A7C000C4BA3FB02035B09642000FB03F3D31A7A
:103A8C001B013233074AA2FB03235B0903F00F022D
:103A9C007B681B680A449A6000BF1037BD4680BD26
:103AAC00003801401F85EB51014B1868704700BF6F
:103ABC005800002070B500260C4D0D4C641BA41052
:103ACC00A64209D100F05CFC00260A4D0A4C641B8E
:103ADC00A410A64205D170BD55F8043B9847013699
:103AEC00EEE755F8043B98470136F2E738440008F6
:103AFC0038440008384400083C440008034602449B
:103B0C00934200D1704703F8011BF9E70EB46FF034
:103B1C00004100B59CB01DAB02900690079104913A
:103B2C000848094953F8042B0591006802A9019330
:103B3C0000F068F80022029B1A701CB05DF804EBD0
:103B4C0003B07047580000200802FFFF2DE9F04732
:103B5C008E6882469E420C4690461F4638D88A890B
:103B6C0012F4906F32D0256809690133A5EB010975
:103B7C0065694B4405EB450505EBD5756D109D420C
:103B8C0038BF1D46530531D5294600F053FB064678
:103B9C0050B90C234FF0FF30CAF80030A38943F022
:103BAC004003A381BDE8F0874A46216900F0CEFAB4
:103BBC00A38923F4906343F08003A38126614E44D0
:103BCC0026603E466561A5EB0905A560BE4200D99D
:103BDC003E4632464146206800F0C6FAA368226889
:103BEC009B1B32440020A3602260DBE72A4600F0D6
:103BFC007BFB06460028E1D15046216900F0CEFA45
:103C0C00C7E700002DE9F04F98468B8907461B0645
:103C1C000D4614469DB00ED50B6963B9402100F0DA
:103C2C0009FB2860286120B90C233B604FF0FF3062
:103C3C00D1E040236B610023099320238DF82930B8
:103C4C0030234FF00109CDF80C80DFF8A4818DF8FA
:103C5C002A3023469A4613F8012B0AB1252AF9D1AA
:103C6C00BAEB040B0BD05B46224629463846FFF7CD
:103C7C006DFF013000F0AA80099A5A4409929AF813
:103C8C000030002B00F0A28000234FF0FF32CDE972
:103C9C0005230AF1010A049307938DF853301A9304
:103CAC005446052214F8011B514800F041FA049ABD
:103CBC00D8B9D00644BF20238DF85330110744BF28
:103CCC002B238DF853309AF800302A2B15D05446FC
:103CDC0000204FF00A0C079A214611F8013B303BAB
:103CEC00092B4ED9B0B1079214E0A0EB080309FAE6
:103CFC0003F31343A2460493D2E7039B191D1B68DD
:103D0C000391002BBBBF5B4242F002020793079367
:103D1C00B8BF049223782E2B0CD163782A2B35D183
:103D2C00039B02341A1D1B680392002BB8BF4FF083
:103D3C00FF330593DFF8C8A003225046217800F02A
:103D4C00F7F940B14023A0EB0A0003FA00F0049B02
:103D5C0001340343049314F8011B062225488DF803
:103D6C00281000F0E5F9002838D0234B1BBB039B2F
:103D7C00073323F0070308330393099B3344099358
:103D8C0067E70C4601200CFB0232A5E700234FF03D
:103D9C000A0C194601340593204610F8012B303AD1
:103DAC00092A03D9002BC5D00591C3E7044601238A
:103DBC000CFB0121F0E703AB00932A4638460F4B6E
:103DCC0004A9AFF30080421C0646D6D1AB895B0632
:103DDC003FF52CAF09981DB0BDE8F08F03AB0093F5
:103DEC002A463846054B04A900F07CF8EBE700BFE7
:103DFC00024400080C44000800000000593B000875
:103E0C00084400082DE9F047164699468A680B6964
:103E1C0007469342B8BF1346336091F843200C46D3
:103E2C00DDF820800AB1013333602368990642BF64
:103E3C00336802333360256815F0060506D104F1AA
:103E4C00190AE36832689B1AAB4228DC94F84320C9
:103E5C00131E226818BF012392062DD449463846FA
:103E6C0004F14302C047013020D02368E56803F019
:103E7C000603042B18BF002532684FF00006A36818
:103E8C0008BFAD1A226908BF25EAE5759342C4BF85
:103E9C009B1AED181A34B5421AD1002008E0012300
:103EAC00524649463846C047013003D14FF0FF30E7
:103EBC00BDE8F0870135C4E73020E11881F84300F4
:103ECC005A1C94F845102244023382F84310C5E77B
:103EDC000123224649463846C0470130E6D0013618
:103EEC00D9E700002DE9FF470C46277E9146782F35
:103EFC0080469A460C9904F1430207D8622F0AD8DF
:103F0C00002F00F0D980582F00F0A48004F1420655
:103F1C0084F842703AE0A7F16303152BF6D801A0A0
:103F2C0050F823F0893F00089D3F0008193F000816
:103F3C00193F0008193F0008193F00089D3F000871
:103F4C00193F0008193F0008193F0008193F0008E5
:103F5C00AB400008CD3F00088D400008193F000819
:103F6C00193F0008CD400008193F0008CD3F00085C
:103F7C00193F0008193F0008954000080B6804F130
:103F8C0042061A1D1B680A6084F842300123A4E023
:103F9C00256808682E0600F104030AD505680B6035
:103FAC00002D03DA2D236D4284F843300A235E483A
:103FBC0019E015F0400F05680B6018BF2DB2EFE744
:103FCC000B682568181D0860280601D51D6802E0DD
:103FDC006906FBD51D886F2F0CBF08230A23524896
:103FEC00002184F843106668002EA8BF2168A660E3
:103FFC00A4BF21F0040121600DB9002E4DD016464E
:10400C00B5FBF3F103FB1157C75D06F8017D2F4695
:10401C00BB420D46F4D9082B0BD12368DF0708D51A
:10402C00236961689942DEBF302306F8013C06F132
:10403C00FF36921B22614B4621464046CDF800A02C
:10404C0003AAFFF7DFFE01304CD14FF0FF3004B074
:10405C00BDE8F087344884F845700E68236856F83C
:10406C00045B1F060E6014D5D90744BF43F0200330
:10407C0023601DB9236823F0200323601023AFE7CE
:10408C00236843F0200323607823284884F84530C4
:10409C00E3E75E0648BFADB2E6E71646BBE70B6842
:1040AC0026681D1D60690D6035061B6801D51860FA
:1040BC0002E07106FBD51880002316462361BAE78F
:1040CC000B681A1D0A601E6800213046626800F0F9
:1040DC002FF808B1801B606063682361002384F8AB
:1040EC004330A8E73246494640462369D047013061
:1040FC00ABD023689B0713D4E068039B9842B8BFEE
:10410C001846A4E70123324649464046D0470130C1
:10411C009BD00135E36803995B1AAB42F2DCEBE709
:10412C00002504F11906F5E713440008244400089F
:10413C00034610B5C9B202449342184601D100207F
:10414C0003E0047801338C42F6D110BD0A4491424D
:10415C0000F1FF3300D1704710B511F8014B9142BB
:10416C0003F8014FF9D110BD884210B501EB0204E0
:10417C0002D98442234607D8431EA14208D011F825
:10418C00012B03F8012FF8E7014602448A4200D1C3
:10419C0010BD13F8014D02F8014DF7E738B505468F
:1041AC00002943D051F8043C0C1F002BB8BFE41875
:1041BC0000F0D0F81E4A1368104633B963601460DF
:1041CC002846BDE8384000F0CBB8A3420AD9216894
:1041DC006218934201BF1A685B68521822606360D0
:1041EC000460EDE71A465B680BB1A342FAD911687B
:1041FC005018A0420BD12068014450188342116022
:10420C00DED118685B68014411605360D8E702D9AD
:10421C000C232B60D4E7206821188B4201BF19684E
:10422C005B680918216063605460C9E738BD00BF42
:10423C00FC000020F8B5CD1C25F0030508350C2D2D
:10424C0038BF0C25002D064601DBA94203D90C23EF
:10425C0033600020F8BD00F07DF821490A6814464F
:10426C009CB9204F3B6823B92146304600F062F8D8
:10427C0038602946304600F05DF8431C23D10C23EE
:10428C003046336000F06CF8E3E723685B1B17D40F
:10429C000B2B03D923601C44256004E06368A24205
:1042AC000CBF0B605360304600F05AF804F10B0061
:1042BC00231D20F00700C21ACCD01B1AA350C9E74B
:1042CC0022466468CCE7C41C24F00304A042E3D06B
:1042DC00211A304600F02EF80130DDD1CFE700BFB7
:1042EC00FC00002000010020F8B5074614460E46DD
:1042FC0021B91146BDE8F840FFF79CBF22B9FFF782
:10430C004DFF25462846F8BD00F030F8A0420FD2EC
:10431C0021463846FFF78EFF05460028F2D031467D
:10432C002246FFF713FF31463846FFF737FFE9E720
:10433C003546E7E738B50023054D044608462B60A3
:10434C00FDF712F9431C02D12B6803B1236038BD71
:10435C00C4020020014800F011B800BFCC020020BC
:10436C00014800F00CB800BFCC02002051F8043C0E
:10437C00181F002BBCBF0B58C018704770477047F4
:10438C00F8B500BFF8BC08BC9E467047F8B500BF36
:08439C00F8BC08BC9E46704706
:1043A4004D4F44453A2564004C4544313A25642038
:1043B400204C4544323A2564000000004C454452E8
:1043C4003A2564004C4544593A2564004C45444719
:1043D4003A2564000000000000000000010203040C
:1043E4000607080900000000010203040203040593
:1043F400060708090A0B0C0D0E0F10100102232DDD
:10440400302B2000686C4C006566674546470030D9
:104414003132333435363738394142434445460026
:104424003031323334353637383961626364656626
:044434000000000084
:044438003101000846
:04443C000D01000866
:10444000010000000000000001000000000000006A
:10445000010000000000000001000000000000005A
:104460006400000000000000000801400008014056
:104470000100020005000000050000000A00000025
:1044800005000000020000000300000000127A0096
:1044900010000000010000005C000020000000008F
:1044A000000000000000000000000000000000000C
:1044B00000000000000000000000000000000000FC
:1044C00000000000000000000000000000000000EC
:1044D00000000000000000000000000000000000DC
:1044E00000000000000000000000000000000000CC
:0C44F000000000000000000000000000C0
:040000050800187166
:00000001FF
